:030000000207B242
:0C07B200787FE4F6D8FD75813E0207F95F
:1006320000060C12181E242A30363B41464B5055F8
:10064200595E6266696C70727577797B7C7D7E7E9D
:100652007E7E7E7D7C7B79777572706C6966625E68
:100662005955504B46413B36302A241E18120C066F
:1006720000FAF4EEE8E2DCD6D0CAC5BFBAB5B0AB38
:10068200A7A29E9A9794908E8B8987858483828273
:1006920082828283848587898B8E9094979A9EA288
:1006A200A7ABB0B5BABFC5CAD0D6DCE2E8EEF4FA61
:1006B2007F7E7E7D7C7B79777572706C6966625E07
:1006C2005955504B46413B36302A241E18120C060F
:1006D20000FAF4EEE8E2DCD6D0CAC5BFBAB5B0ABD8
:1006E200A7A29E9A9794908E8B8987858483828213
:1006F20082828283848587898B8E9094979A9EA228
:10070200A7ABB0B5BABFC5CAD0D6DCE2E8EEF4FA00
:1007120000060C12181E242A30363B41464B505517
:10072200595E6266696C70727577797B7C7D7E7EBC
:1007320000402060105030700848286818583878F7
:1007420004442464145434740C4C2C6C1C5C3C7CA7
:1007520002422262125232720A4A2A6A1A5A3A7AB7
:1007620006462666165636760E4E2E6E1E5E3E7E67
:1007720001412161115131710949296919593979A7
:1007820005452565155535750D4D2D6D1D5D3D7D57
:1007920003432363135333730B4B2B6B1B5B3B7B67
:1007A20007472767175737770F4F2F6F1F5F3F7F17
:1008B00020200E8000C000E000F000F800FC00FEE8
:1008C00000FF00FF80FFC0FFE0FFF0FFF8FFFCFF2C
:1008D000FEFFFF010A0F013100010D00010B0F01A6
:0908E0003200012E000233000079
:10002E00753901753601E53914FFE536A8070880E4
:10003E0002C333D8FCF536E4F53AE53614FFE53A5B
:10004E00D39F400302032B753C01C374079539FF00
:10005E00E53CA807088002C333D8FCF53C853AF08E
:10006E00A4F53C853A3BE53BC3948040030203264E
:10007E00E53B25E02400F582E43400F583E0F50845
:10008E00A3E0F509E53B25E02410F582E43401F503
:10009E0083E0F53DA3E0F53EE53B2536F925E0246A
:1000AE0000F582E43400F583E0FCA3E0FD8C2FF52F
:1000BE0030E53C9006B293FF3395E0FE120968EFEF
:1000CE007807CEA2E713CE13D8F8FFE53B25E02440
:1000DE0000F582E43400F583E0FCA3E02FFBEC3E58
:1000EE00FAE925E02410F582E43401F583E0FCA35F
:1000FE00E0FDE53C90063293FF3395E0FE12096871
:10010E00EF7807CEA2E713CE13D8F82BFFEA3EFE08
:10011E00E53B25E02400F582E43400F583EEF0A300
:10012E00EFF0E925E02400F582E43400F583E0FCED
:10013E00A3E0FDE53C90063293FF3395E0FE1209F5
:10014E0068EF7807CEA2E713CE13D8F8FFE53B256C
:10015E00E02410F582E43401F583E0FCA3E0C39FB4
:10016E00FBEC9EFAE925E02410F582E43401F583D8
:10017E00E0FCA3E0FDE53C9006B293FF3395E0FE74
:10018E00120968EF7807CEA2E713CE13D8F82BFF2B
:10019E00EA3EFEE53B25E02410F582E43401F583CA
:1001AE00EEF0A3EFF0E925E02400F582E43400F54B
:1001BE0083E0FCA3E0FDE53C9006B293FF3395E0AF
:1001CE00FE120968EF7807CEA2E713CE13D8F8FF18
:1001DE00C3E5099FFBE5089EFAE925E02410F582A8
:1001EE00E43401F583E0FCA3E0FDE53C9006329398
:1001FE00FF3395E0FE120968EF7807CEA2E713CE23
:10020E0013D8F8FFC3EB9FFFEA9EFEE925E024001A
:10021E00F582E43400F583EEF0A3EFF0E53C9006B2
:10022E003293FF3395E0FEAC2FAD30120968EF78B4
:10023E0007CEA2E713CE13D8F8253EFBE53D3EFAD6
:10024E00E925E02410F582E43401F583E0FCA3E017
:10025E00FDE53C9006B293FF3395E0FE120968EF80
:10026E007807CEA2E713CE13D8F8FFC3EB9FFFEAB1
:10027E009EFEE925E02410F582E43401F583EEF0CC
:10028E00A3EFF0E53B25E02400F582E43400F5838E
:10029E00C083C082E0A2E713FFA3E013D082D08315
:1002AE00CFF0A3EFF0E53B25E02410F582E4340116
:1002BE00F583C083C082E0A2E713FFA3E013D082D0
:1002CE00D083CFF0A3EFF0E53B2536FD25E02400EB
:1002DE00F582E43400F583C083C082E0A2E713FF09
:1002EE00A3E013D082D083CFF0A3EFF0ED25E0246E
:1002FE0010F582E43401F583C083C082E0A2E713D7
:10030E00FFA3E013D082D083CFF0A3EFF0E5362524
:10031E00E0253BF53B020074053A0200480539E53D
:10032E003964086003020031E4F53AE53A25E02429
:10033E0012F582E43401F583E0FCA3E0FDFFAE0488
:10034E00120968AA06AB07E53A25E02402F582E415
:10035E003400F583E0FCA3E0FDFFAE04120968EF64
:10036E002BFFEE3AA2E713F537EF13F538C39401DE
:10037E00E53794005005E4F537F5387400253AF565
:10038E0082E43401F583E538F07400253AF582E411
:10039E003401F583E0FF7E00D39534EE95334004AF
:1003AE008E338F34053AE53A64106003020339D375
:1003BE00E5349410E5339400402DE533C4F854F041
:1003CE00C868F533E534C4540F48F534E4F53A748F
:1003DE0000253AF582E43401F583E08534F084F0AB
:0803EE00053AE53AB410E822DB
:10094B00E52E25E0240FF8E6F580E52E25E0240EB4
:04095B00F8E6F5A025
:08095F007F017E03DEFEDFFADA
:01096700226D
:1008EA00759D0253A2FBD2AD75BCE9759601758957
:1008FA0012758CB0758AB0758DFE758BD4D2A9C26B
:10090A008CD2ABD28EC2BBD2B975B720A2BDE433AA
:05091A00F5B8D2AF2288
:03002B0002083E8A
:10083E00C0E0C0F0C083C082C0D075D000C004C07C
:10084E0005C006C00775BC00AFBDEF25E0FDE43363
:10085E00FCE5BEC31375F002A42DFDE5F03CFCE5EE
:10086E000D90073293FF3395E0FEEF25E0FFEE3358
:10087E00FE74002FF58274003EF583ECF0A3EDF0CC
:10088E00E50DD3947F5004050D8004C2ADC28CD00B
:10089E0007D006D005D004D0D0D082D083D0F0D0EF
:0208AE00E03236
:03001B000203F6E7
:1003F600C0E0C0F0C083C082C0D075D000C000C0CD
:1004060006C007758DFE758BD40532E532B421031F
:10041600753201E53214B42000400302060290044E
:100426003275F003A4C58325F0C5837302049202D6
:10043600049A0204A60204B20204BE0204CA02041A
:10044600D60204E20204EE0204FA020506020512CE
:1004560002051E02052A02053602054202054E0263
:10046600055C02056802057402058002058B02051B
:10047600960205A10205AC0205B70205C20205CD2A
:100486000205D80205E30205EE0205F9D2929001B3
:1004960000020553900100E0F50C75B0010206025A
:1004A600900101E0F50C75B002020602900101E030
:1004B600F50C75B003020602900102E0F50C75B06A
:1004C60004020602900102E0F50C75B00502060270
:1004D600900103E0F50C75B006020602900103E0F8
:1004E600F50C75B007020602900104E0F50C75B034
:1004F60008020602900104E0F50C75B00902060236
:10050600900105E0F50C75B00A020602900105E0BF
:10051600F50C75B00B020602900106E0F50C75B0FD
:100526000C020602900106E0F50C75B00D020602FB
:10053600900107E0F50C75B00E020602900107E087
:10054600F50C75B00F020602C292900108E0F50C98
:1005560075B000020602900108E0F50C75B01002B5
:100566000602900109E0F50C75B020020602900122
:1005760009E0F50C75B03002060290010AE0F50CB0
:1005860075B040807790010AE0F50C75B050806C2C
:1005960090010BE0F50C75B060806190010BE0F501
:1005A6000C75B070805690010CE0F50C75B080802B
:1005B6004B90010CE0F50C75B090804090010DE079
:1005C600F50C75B0A0803590010DE0F50C75B0B056
:1005D600802A90010EE0F50C75B0C0801F90010EC8
:1005E600E0F50C75B0D0801490010FE0F50C75B0F5
:1005F600E0800990010FE0F50C75B0F0752E00E56E
:100606002ED3950C500712094B052E80F2E52EC30A
:100616009400400712094B152E80F2D007D006D061
:0C06260000D0D0D082D083D0F0D0E032E1
:03000B00020003ED
:0400030075BCE932AD
:10091F001208EAE4F50DD28CD2ADE50DC3948040F8
:10092F00F9E4FFEF25E02410F582E43401F583E4C8
:0C093F00F0A3F00FBF80EC12002E80D758
:1007BE0002091FE493A3F8E493A34003F68001F229
:1007CE0008DFF48029E493A3F85407240CC8C3333C
:1007DE00C4540F4420C8834004F456800146F6DF0B
:1007EE00E4800B01020408102040809008B0E47EE3
:1007FE00019360BCA3FF543F30E509541FFEE49300
:10080E00A360010ECF54C025E060A840B8E493A3C6
:10081E00FAE493A3F8E493A3C8C582C8CAC583CAF1
:10082E00F0A3C8C582C8CAC583CADFE9DEE780BEA9
:0108E900000E
:10096800EF8DF0A4A8F0CF8CF0A428CE8DF0A42EA3
:02097800FE225D
:00000001FF
