:100000000C9433000C9400000C9400000C9400003D
:100010000C9400000C9400000C9400000C94000060
:100020000C9400000C9400000C9400000C94000050
:100030000C9400000C9400000C9491000C940000AF
:100040000C9400000C9400000C9400000C94BE0072
:100050000C94000000000A0001000200540002009D
:10006000600156000000F894EE27ECBBF1E0FBBF06
:10007000EBBFE5BFF8E1F1BDE1BD8DE0A2E0BB273C
:10008000ED938A95E9F780E094E0A0E6ED9301977F
:10009000E9F7E8E5F0E085919591009761F0A59189
:1000A000B59105901590BF01F00105900D92019753
:1000B000E1F7FB01F0CFEFE5EDBFE4E0EEBFC0E616
:1000C000D1E00C946300EFE0EABBEBBB5ED0EBE069
:1000D000E3BFE0E0E2BFECE7ECBFE2E0E9BFE7E46A
:1000E000E7B9E0B7EF71E0BFE0B7E066E0BFEDEA87
:1000F000E6B97894E4EFF1E0FA93EA930E948C0178
:10010000F301662777270E94E10187D0E0E2EA93B6
:1001100047D0E4EFF1E0FA93EA930E948C01EACF32
:10012000FFCF0A921A926A937A938A939A93AA9328
:10013000BA93EA93FA93EFB7EA9344B055B0D20179
:1001400088279927E8E8F3E160E070E00E949801D1
:10015000DF01CB01E0E0F4E060E070E00E94B80174
:100160003F01E991EFBFF991E991B991A991999175
:10017000899179916991199009901895EA93EFB74F
:10018000689420F8EFBFE9911895E0E0EBB9E8ED4D
:10019000EAB9E6E8E0BDE7E4E9B9E0E0E0BD0895EA
:1001A0005D9BFECFE881ECB921960895EDE0EA93DE
:1001B000F7DFEAE0EA93F4DF08950E94EE01EC81B4
:1001C000FD81FA93EA930E94820131978F0120E02A
:1001D00030E0201731075CF4F901AC81BD81AE0F2E
:1001E000BF1FEC91EA93DCDF2F5F3F4FF2CFF901A5
:1001F000AC81BD81AE0FBF1FAC91AA3011F4D6DF28
:1002000008C0F901AC81BD81AE0FBF1FEC91EA932C
:10021000C7DF0E94F301269608956497EC89FD8953
:100220006E897F890E94E101FE013496FA93EA9378
:1002300006D0FE01FA93EA93C0DF689608956497AA
:100240001A930A9310E000E010E0E88DF98D6A8DB2
:100250007B8D0E94EA0131F1E12FF0E0DE01129680
:10026000EA0FFB1FFF93EF93A88DB98D8A8D9B8DAD
:10027000EAE0F0E060E070E00E94DD01E05DAF9157
:10028000BF91EC931F5FA88DB98D8A8D9B8DEAE09D
:10029000F0E060E070E00E94B801E88FF98F6A8FAB
:1002A0007B8FD3CF012F10E01017B8F4E12FAE8968
:1002B000BF89F0E0EA0FFB1FBF01A02FA11BE1E007
:1002C0000E94E601EA1BF0E0DE011296AE0FBF1FAE
:1002D000EC91DB01EC931F5FE7CF103049F4E12F85
:1002E0001F5FAE89BF89F0E0AE0FBF1FE0E3EC9364
:1002F000AE89BF89EE27A10FBE1FEC93198108813B
:100300006C960895A991B991EE27FF276D91662308
:1003100011F03196FBCF0895E991F991309639F0BB
:1003200080ED97E00197F1F7A8953197C9F7089507
:100330007A9F702D6B9F700DF89F700DE99F700D67
:100340006A9F602D710DFB9F600D711DE89F600D10
:10035000711D8827FA9FF02D610D781FEB9FF00D1E
:10036000611D781FEA9FE02DF10D681F781F089529
:100370003F934F935F93002411244427552730E285
:10038000AA0FBB1F881F991F001C111C441F551F5B
:100390000E1A1F0A460B570B28F40E0E1F1E461F7F
:1003A000571F01C0A1603A9559F7FD01BC01D0016A
:1003B000CA015F914F913F910895DADFFD01BC01C1
:1003C00008957A936A93FA93EA9308951A2EAE2FBA
:1003D000E12D089530976040704008953A932A9334
:1003E0001A930A9308953B812A81198108810895FF
:00000001FF
