:030000000207B143
:0C07B100787FE4F6D8FD75814E0207F851
:1006310000060C12181E242A30363B41464B5055F9
:10064100595E6266696C70727577797B7C7D7E7E9E
:100651007E7E7E7D7C7B79777572706C6966625E69
:100661005955504B46413B36302A241E18120C0670
:1006710000FAF4EEE8E2DCD6D0CAC5BFBAB5B0AB39
:10068100A7A29E9A9794908E8B8987858483828274
:1006910082828283848587898B8E9094979A9EA289
:1006A100A7ABB0B5BABFC5CAD0D6DCE2E8EEF4FA62
:1006B1007F7E7E7D7C7B79777572706C6966625E08
:1006C1005955504B46413B36302A241E18120C0610
:1006D10000FAF4EEE8E2DCD6D0CAC5BFBAB5B0ABD9
:1006E100A7A29E9A9794908E8B8987858483828214
:1006F10082828283848587898B8E9094979A9EA229
:10070100A7ABB0B5BABFC5CAD0D6DCE2E8EEF4FA01
:1007110000060C12181E242A30363B41464B505518
:10072100595E6266696C70727577797B7C7D7E7EBD
:1007310000402060105030700848286818583878F8
:1007410004442464145434740C4C2C6C1C5C3C7CA8
:1007510002422262125232720A4A2A6A1A5A3A7AB8
:1007610006462666165636760E4E2E6E1E5E3E7E68
:1007710001412161115131710949296919593979A8
:1007810005452565155535750D4D2D6D1D5D3D7D58
:1007910003432363135333730B4B2B6B1B5B3B7B68
:1007A10007472767175737770F4F2F6F1F5F3F7F18
:1008AF00110A000103070F1F3F7FFF0103070F1FEF
:1008BF003F7FFF2020268000C000E000F000F800FE
:1008CF00FC00FE00FF00FF80FFC0FFE0FFF0FFF81D
:1008DF00FFFCFFFEFFFF011B0F012100011E0001A6
:0908EF001C0F012200022300008D
:10002E00754901754601E54914FFE546A8070880A4
:10003E0002C333D8FCF546E4F54AE54614FFE54A1B
:10004E00D39F400302032B754C01C374079549FFE0
:10005E00E54CA807088002C333D8FCF54C854AF05E
:10006E00A4F54C854A4BE54BC3948040030203260E
:10007E00E54B25E02400F582E43400F583E0F50835
:10008E00A3E0F509E54B25E02430F582E43401F5D3
:10009E0083E0F54DA3E0F54EE54B2546F925E0242A
:1000AE0000F582E43400F583E0FCA3E0FD8C1FF53F
:1000BE0020E54C9006B193FF3395E0FE120960EFF8
:1000CE007807CEA2E713CE13D8F8FFE54B25E02430
:1000DE0000F582E43400F583E0FCA3E02FFBEC3E58
:1000EE00FAE925E02430F582E43401F583E0FCA33F
:1000FE00E0FDE54C90063193FF3395E0FE1209606A
:10010E00EF7807CEA2E713CE13D8F82BFFEA3EFE08
:10011E00E54B25E02400F582E43400F583EEF0A3F0
:10012E00EFF0E925E02400F582E43400F583E0FCED
:10013E00A3E0FDE54C90063193FF3395E0FE1209E6
:10014E0060EF7807CEA2E713CE13D8F8FFE54B2564
:10015E00E02430F582E43401F583E0FCA3E0C39F94
:10016E00FBEC9EFAE925E02430F582E43401F583B8
:10017E00E0FCA3E0FDE54C9006B193FF3395E0FE65
:10018E00120960EF7807CEA2E713CE13D8F82BFF33
:10019E00EA3EFEE54B25E02430F582E43401F5839A
:1001AE00EEF0A3EFF0E925E02400F582E43400F54B
:1001BE0083E0FCA3E0FDE54C9006B193FF3395E0A0
:1001CE00FE120960EF7807CEA2E713CE13D8F8FF20
:1001DE00C3E5099FFBE5089EFAE925E02430F58288
:1001EE00E43401F583E0FCA3E0FDE54C9006319389
:1001FE00FF3395E0FE120960EF7807CEA2E713CE2B
:10020E0013D8F8FFC3EB9FFFEA9EFEE925E024001A
:10021E00F582E43400F583EEF0A3EFF0E54C9006A2
:10022E003193FF3395E0FEAC1FAD20120960EF78DD
:10023E0007CEA2E713CE13D8F8254EFBE54D3EFAB6
:10024E00E925E02430F582E43401F583E0FCA3E0F7
:10025E00FDE54C9006B193FF3395E0FE120960EF79
:10026E007807CEA2E713CE13D8F8FFC3EB9FFFEAB1
:10027E009EFEE925E02430F582E43401F583EEF0AC
:10028E00A3EFF0E54B25E02400F582E43400F5837E
:10029E00C083C082E0A2E713FFA3E013D082D08315
:1002AE00CFF0A3EFF0E54B25E02430F582E43401E6
:1002BE00F583C083C082E0A2E713FFA3E013D082D0
:1002CE00D083CFF0A3EFF0E54B2546FD25E02400CB
:1002DE00F582E43400F583C083C082E0A2E713FF09
:1002EE00A3E013D082D083CFF0A3EFF0ED25E0246E
:1002FE0030F582E43401F583C083C082E0A2E713B7
:10030E00FFA3E013D082D083CFF0A3EFF0E5462514
:10031E00E0254BF54B020074054A0200480549E5FD
:10032E004964086003020031E4F54AE54A25E024F9
:10033E0032F582E43401F583E0FCA3E0FDFFAE0468
:10034E00120960AA06AB07E54A25E02402F582E40D
:10035E003400F583E0FCA3E0FDFFAE04120960EF6C
:10036E002BFFEE3AA2E713F547EF13F548C39401BE
:10037E00E54794005005E4F547F5487400254AF525
:10038E0082E43401F583E548F07400254AF582E4F1
:10039E003401F583E0FF7E00D39524EE95234004CF
:1003AE008E238F24054AE54A64106003020339D375
:1003BE00E5249410E5239400402DE523C4F854F071
:1003CE00C868F523E524C4540F48F524E4F54A74AF
:1003DE0000254AF582E43401F583E08524F084F0AB
:0803EE00054AE54AB410E822BB
:08000E007F217E03DEFEDFFA14
:0100160022C7
:1008F900759D0275920175910153A2FBD2AD75BC2C
:10090900E9759601758912758CB0758AB0758DFD7A
:10091900758BA8D2A9C28CD2ABD28EC2BBD2B97503
:0B092900B720A2BDE433F5B8D2AF2226
:03002B0002083D8B
:10083D00C0E0C0F0C083C082C0D075D000C004C07D
:10084D0005C006C00775BC00AFBDEF25E0FDE43364
:10085D00FCE5BEC31375F002A42DFDE5F03CFCE5EF
:10086D001E90073193FF3395E0FEEF25E0FFEE3349
:10087D00FE74002FF58274003EF583ECF0A3EDF0CD
:10088D00E51ED3947F5004051E8004C2ADC28CD0EA
:10089D0007D006D005D004D0D0D082D083D0F0D0F0
:0208AD00E03237
:03001B000203F6E7
:1003F600C0E0C0F0C083C082C0D075D000C000C0CD
:1004060006C007758DFD758BA80522E522B421036C
:10041600752201E52214B42000400302060290046E
:100426003275F003A4C58325F0C5837302049202D6
:10043600049A0204A60204B20204BE0204CA02041A
:10044600D60204E20204EE0204FA020506020512CE
:1004560002051E02052A02053602054202054E0263
:10046600055C02056802057402058002058B02051B
:10047600960205A10205AC0205B70205C20205CD2A
:100486000205D80205E30205EE0205F9D2929001B3
:1004960000020553900100E0F51D75B00102060249
:1004A600900101E0F51D75B002020602900101E01F
:1004B600F51D75B003020602900102E0F51D75B048
:1004C60004020602900102E0F51D75B0050206025F
:1004D600900103E0F51D75B006020602900103E0E7
:1004E600F51D75B007020602900104E0F51D75B012
:1004F60008020602900104E0F51D75B00902060225
:10050600900105E0F51D75B00A020602900105E0AE
:10051600F51D75B00B020602900106E0F51D75B0DB
:100526000C020602900106E0F51D75B00D020602EA
:10053600900107E0F51D75B00E020602900107E076
:10054600F51D75B00F020602C292900108E0F51D76
:1005560075B000020602900108E0F51D75B01002A4
:100566000602900109E0F51D75B020020602900111
:1005760009E0F51D75B03002060290010AE0F51D8E
:1005860075B040807790010AE0F51D75B050806C1B
:1005960090010BE0F51D75B060806190010BE0F5F0
:1005A6001D75B070805690010CE0F51D75B0808009
:1005B6004B90010CE0F51D75B090804090010DE068
:1005C600F51D75B0A0803590010DE0F51D75B0B034
:1005D600802A90010EE0F51D75B0C0801F90010EB7
:1005E600E0F51D75B0D0801490010FE0F51D75B0D3
:1005F600E0800990010FE0F51D75B0F0E51DD3947C
:100606000F5014E51D25E02427F8E6F580E51D25A5
:10061600E02426F8E6F5A012000ED007D006D0009A
:0B062600D0D0D082D083D0F0D0E032E2
:03000B00020003ED
:0400030075BCE932AD
:100934001208F9E4F51ED28CD2ADE51EC3948040B2
:10094400F9E4FFEF25E02430F582E43401F583E493
:0C095400F0A3F00FBF80EC12002E80D743
:1007BD00020934E493A3F8E493A34003F68001F215
:1007CD0008DFF48029E493A3F85407240CC8C3333D
:1007DD00C4540F4420C8834004F456800146F6DF0C
:1007ED00E4800B01020408102040809008AFE47EE5
:1007FD00019360BCA3FF543F30E509541FFEE49301
:10080D00A360010ECF54C025E060A840B8E493A3C7
:10081D00FAE493A3F8E493A3C8C582C8CAC583CAF2
:10082D00F0A3C8C582C8CAC583CADFE9DEE780BEAA
:0108F80000FF
:10096000EF8DF0A4A8F0CF8CF0A428CE8DF0A42EAB
:02097000FE2265
:00000001FF
