:030000000203D127
:0C03D100787FE4F6D8FD75814002041826
:10045D001090D00080C0E0F0F8FCFEFFFF0282C2D9
:10046D00E2F2FA0080C0E0F0F8FCFEFFFF20A000F1
:10047D000000000000000C1E3E7C3E1E0C00000023
:10048D000000080E0F8143271F1F27438181C2A63D
:10049D009E9EA6C28181C2E4DCDCE4C28181C2E4FD
:1004AD00F8F8E4C28180C0E0F0F8FCFEFFFFFF88A1
:0504BD009C8880808096
:1006A000012807012901012A02012D00012E000164
:1006B0002F0001300001230001240001310001322C
:1006C00000013301013402013503013600013C0011
:0A06D000013D00014000023E000061
:08000E007F017E2FDEFEDFFA08
:0100160022C7
:080750007F477E02DEFEDFFAA6
:01075800227E
:1005D700E530B40903752F01E530D394094007E4EA
:1005E700F52FF530052EE52ED394054005E4F52EBD
:1005F700052AE529C39402500AE52AB40A05E4F559
:100607002A0529E529D39401400AE52AB40405E41B
:05061700F52AF529227F
:10061C00E536B40903753C01E536D394094007E48B
:10062C00F53CF5360535E535D394054005E4F5354F
:10063C000534E533C39402500AE534B40A05E4F5F5
:10064C00340533E533D39401400AE534B40405E4AE
:05065C00F534F5332226
:09001E001200271200271200272E
:10002700E53D7013852937852A38852E3985303A7D
:10003700852F3BF527801285333785343885353949
:1000470085363A853C3B752705E531B420004003EA
:10005700020326900061F82828730200C10200CB32
:100067000200E10200F702010802013902016A02F7
:1000770001750201860201970201A80201B9020176
:10008700CA0201E00201F602020102021702022F70
:1000970002023A02024502025102025D02026902AD
:1000A700027A02028B0202A10202B10202C6020216
:1000B700DB0202EB0202FB020310E4F580F5B0D28B
:1000C7009102022AE52790048A93F580E537900488
:1000D7005D93F5B075A001020323E52790048B9388
:1000E700F580E53790045D93F5B075A00202032310
:1000F700E52790048C93F580E4F5B075A00302031F
:1001070023E527700DE538B409057580A0800375D0
:100117008020E527B4050DE538B409057580AE8064
:100127000375802EE53890046093F5B075A004023E
:100137000323E527700DE538B409057580A0800312
:10014700758020E527B4050DE538B409057580A845
:100157008003758028E53890046093F5B075A00595
:10016700020323E4F580F5B075A006020323E52812
:1001770090047C93F580E4F5B075A007020323E5AE
:100187002890047D93F58075B06075A0080203235D
:10019700E52890047E93F58075B06075A009020389
:1001A70023E52890047F93F580E4F5B075A00A0253
:1001B7000323E52890048093F580E4F5B075A00B40
:1001C700020323E52890048193F580E53990046ABA
:1001D70093F5B075A00C020323E52890048293F5EC
:1001E70080E53990046A93F5B075A00D020323E406
:1001F700F580F5B075A00E020323E53B90047A93D2
:10020700F580E53A90047093F5B075A00F020323CB
:10021700E53B90047A93F580E53A90047093F5B046
:10022700C291E4F5A0020323E4F580F5B075A010B0
:10023700020323E4F580F5B075A02002032375803F
:100247008EE4F5B075A03002032375808AE4F5B01B
:1002570075A04002032375808175B0FF75A0500219
:100267000323E5409004BC93F580E4F5B075A060E6
:10027700020323E5409004BD93F580E4F5B075A033
:1002870070020323E5409004BE93F580E52D9004AA
:100297009293F5B075A080020323758080E52D90B9
:1002A700049393F5B075A0908072E5239004B29300
:1002B700F580E52D90049493F5B075A0A0805DE5D9
:1002C700239004B293F580E52D90049593F5B075CE
:1002D700A0B08048758080E52D90049693F5B075A1
:1002E700A0C08038758080E52D90049793F5B07590
:1002F700A0D08028E5249004B293F580E52D9004E2
:100307009893F5B075A0E08013E5249004B293F5B7
:1003170080E52D90049993F5B075A0F012000E05B5
:1003270031E531B42003E4F531E53D70030205D72B
:0403370012061C226C
:03000300DFFE22FB
:0E074200AD07AF051DEF600512001E80F52209
:1006DB00C200D2947F0A120003C29412001E1200B1
:1006EB0027D294120027120027A2949200120027FF
:0506FB00120027A2001F
:0107000022D6
:10072200E4FC7D08120027C294ECC313FCD294307F
:0F0732009403430480120027120027DDE7AF0471
:010741002295
:02070100AD0742
:100703007B08120027C294ED139294120027120063
:0F07130027D294EDC313FDDBE912002702002764
:10066100E4FBFFFEFDFC1206DB7FCC1207017F4499
:100671001207017F281207421206DB7FCC12070105
:100681007FBE120701120722AB07120722EF7F007C
:0E069100FEEF2BFDE43EFC120027AE04AF0589
:01069F002238
:10052300758911758CFE758A70758DFC758B18D263
:10053300A9D2ABD28CD28ED2AFC292C293E53F4541
:100543003E70FAE521C4F854F0C868F525E522C4E5
:10055300540F48F526AE25FF7C007D64120582AA60
:1005630004AB057D0A7C00AF03AE021205828F2324
:0F0573007D0A7C00AF03AE021205828D2480BE8C
:03000B000204C22A
:1004C200C0E0C083C082C0D075D000758CFE758A32
:1004D20070120027053FE53F7002053EB48813E520
:1004E2003EB4130E753E00753F0005327408252D8B
:1004F200F52DE52DD394184003752D00E532B43C5B
:10050200057532000530120027E532B40A071206DB
:10051200618E218F22120027D0D0D082D083D0E0EA
:0105220032A6
:03001B0002033BA2
:10033B00C0E0C0D075D008758DFC758B1820951357
:10034B0012075020950D3095FDE53D7004052A8070
:10035B0002053420961312075020960D3096FDE5BA
:10036B003D7004053080020536E533B5291FE534B1
:10037B00B52A1AE535B52E15E536B53010E53CB581
:10038B002F0BE5327007D29212000EC292E533B5F5
:10039B002920E534B52A1BE535B52E16E536B530E3
:1003AB0011E53CB52F0CE532B43B07D29312000E8E
:1003BB00C29320970C1207502097063097FD633D90
:0603CB00FFD0D0D0E032AB
:1003DD00020523E493A3F8E493A34003F68001F20E
:1003ED0008DFF48029E493A3F85407240CC8C33321
:1003FD00C4540F4420C8834004F456800146F6DFF0
:10040D00E4800B01020408102040809006A0E47ED9
:10041D00019360BCA3FF543F30E509541FFEE493E4
:10042D00A360010ECF54C025E060A840B8E493A3AB
:10043D00FAE493A3F8E493A3C8C582C8CAC583CAD6
:10044D00F0A3C8C582C8CAC583CADFE9DEE780BE8E
:0106DA00001F
:10058200BC000BBE0029EF8DF084FFADF022E4CC5D
:10059200F875F008EF2FFFEE33FEEC33FCEE9DEC26
:1005A200984005FCEE9DFE0FD5F0E9E4CEFD22ED6C
:1005B200F8F5F0EE8420D21CFEADF075F008EF2FB6
:1005C200FFED33FD4007985006D5F0F222C398FDA7
:0505D2000FD5F0EA2244
:00000001FF
