:030000000208648F
:0C086400787FE4F6D8FD7581490208ABEE
:1000060002130000020D0000C102C180C101C183BC
:03001600010800DE
:100A4500E4FDFCC3ED9FEC9E500DE4FB0BBB0AFCE3
:070A55000DBD00010C80EC57
:010A5C002277
:03001B000204914B
:0F049100C0E0C083C082C0D075D000C006C007D5
:1004A0003002030205C90508E508B4040375080015
:1004B000E508600302061C300017E514B48007E568
:1004C00013B4070280180514E514702505130206FD
:1004D0001C300120E514B46010E513B4050B75134E
:1004E00000751400C28E02061C0514E51470020586
:1004F0001302061CE513F5E3AF14EFF5E475E7808E
:1005000075E50175E64675E6B90514E51470020552
:1005100013E514B48007E513B40402C28EE514B4E5
:100520008007E513B40702C28EE514B48007E51313
:10053000B40A02C28EE514B48007E513B40D02C2FA
:100540008EE514B48007E513B41002C28EE514B42E
:100550008007E513B41302C28EE514B48007E513D7
:10056000B41602C28EE514B48007E513B41902C2B2
:100570008EE514B48007E513B41C02C28EE514B4F2
:100580008007E513B41F02C28EE514B48007E5139B
:10059000B42202C28EE514B48007E513B42502C26A
:1005A0008EE514B48007E513B42802C28EE514B4B6
:1005B0008007E513B42B02C28EE51464807004E555
:1005C00013642E7057C28E80530514E514AE137059
:1005D000020513142400F58274003EF583E0F5FA59
:1005E000E50E150E7002150D3003210514E514AE4D
:1005F0001370020513142400F58274003EF583E0A5
:10060000F5FBE50E150E7007150D800385FAFBC38B
:0C061000E51394024006751300751400F9
:0D061C00D007D006D0D0D082D083D0E032FD
:040A6B007585D0229B
:040A6F007585D12296
:0B0A2900AF49AE48AD47AC461207696C
:100A3400C2948F86E58430E7FB758480D294AF86B8
:010A4400228F
:02097500AE07CB
:10097700E4FB7FFF120A34C294EE4440FF120A34AC
:100987007818120A297810120A29AF49AE48AD47DC
:10099700AC467808120769120A34AF49120A347F45
:1009A70095120A347FFF120A34BFFF09AE030BEE1C
:0709B700D3941440EFD29429
:0109BE002216
:1008F000E4FA7FFF120A340ABA0FF7C2947F40125B
:100900000A34E4FF120A34E4FF120A34E4FF120A44
:1009100034E4FF120A347F95120A34E4FA7FFF129E
:070920000A34EF6401704589
:10092700F53EE4F549F548F547F5467F01120975A7
:100937008F3F053EE53ED3946440037F0122E53FA8
:1009470070E0F549F548F547F5467F3B1209758F85
:100957003FE4F549754802F547F5467F10120975DA
:050967008F3F7F00221C
:08096C000ABA7FADD2947F01AD
:010974002260
:1007AF0074FFF50DF50E782212078F7B017A007911
:0107BF000039
:0E07C0008F418E408D3F8C3E8B428A43894490
:1007CE00900000E5122541FFE5113540FEE510359C
:1007DE003FFDE50F353EFC780912077C8F498E48A8
:1007EE008D478C467F11120975EF600122C2947FEE
:1007FE00FF120A34EF64FE60180582E582AE837044
:10080E0002058314D394E8EE940340E3D2947F015F
:10081E0022E4FDFC050EE50E7002050DC3E50D94F8
:10082E000250F97FFF120A34AB420544E544AA4355
:10083E007002054314F9EF1206290DBD00010CE4F8
:10084E00B505D1ECB402CD7FFF120A347FFF120A38
:05085E0034D2947F007C
:010863002272
:0E0A5D00758922758AFF758CFFD28CC2A92282
:1009BF008E3E8F3FC3E53F9440E53E941F4015E4C4
:1009CF00F5C7AE3EAF3FAB07AA06F9F87F807EDED4
:1009DF007D0F801475C702AE3EAF3FAB07AA06E48A
:1009EF00F9F87FA07EF77D03FC1206C6EFF404F53D
:0A09FF008BF58DC28ED2AFD2AB2271
:100A0900438E8075D904E4F5E9F5F975EA8075FA3C
:100A19008075DA4275EB8075FB8075DB42D2DE2288
:10001E00E4F521F538F539F53AF53BF53C753D013A
:10002E007592F07591F0120A5D120A09D288D2A863
:10003E00E4F53DC28ED200F513F514C2027F407E68
:10004E001F1209BFD28E208EFDC200120A6F120837
:10005E00F0EF70FA120A6B7FE87E03120A45E4F5A0
:10006E0013F514D28E208EFDD28E208EFD7F887ECB
:10007E0013120A458024C28EC202E4F512F511F560
:10008E0010F50FF53C153D8011C28EC202E4F5123B
:10009E00F511F510F50FF53C053D74FFF50DF50E58
:1000AE007B017A0079007F007E007D007C001207C4
:1000BE00C0EF600302003E900000E0B4EB0BA3E043
:1000CE00B43C06A3E0649060589001C7E0FE900136
:1000DE00C6E0FDEEFC9001C8E07E007810C333CE82
:1000EE0033CED8F9FFEC4EFCED4FFD9001C9E07E0A
:1000FE00007818C333CE33CED8F9FFEC4EFEED4F59
:10010E00FFE48F128E11F510F50F74FFF50DF50E3D
:10011E007B017A0079007F007E007D007C00120753
:10012E00C09001FEE06455600302003EA3E064AAA5
:10013E00600302003E900010E0FD90000CE0FE9087
:10014E00000BE0FBEEF526EBF52790000DE0F52811
:10015E00A3E0FC900012E0FE900011E0FBEBFFEE3E
:10016E00C4F854F0C868F529EFC4540F48F52A9026
:10017E000017E0FF900016E0AE058EF0A4AEF0ADD5
:10018E00047C002DF52CEC3EF52BE52C252AF52EC6
:10019E00E52B3529F52DE4F538F539C3E539952AE2
:1001AE00E5389529400302039F74FFF50DF50EE522
:1001BE002C2539FFE52B3538FEE4FCFD1207BAE499
:1001CE00F53AF53BC3E53A9402400302038E740000
:1001DE00253BF5827400353AF583E0642E700302F8
:1001EE0003807400253BF5827400353AF583E07088
:1001FE0003020380740B253BF5827400353AF583B8
:10020E00E0640F60047F0180027F007400253BF5DF
:10021E00827400353AF583E064E560047E01800265
:10022E007E00EE5F70030203807408253BF5827436
:10023E0000353AF583E064576003020380740925A4
:10024E003BF5827400353AF583E0644160030203A6
:10025E0080740A253BF5827400353AF583E06456C6
:10026E006003020380741B253BF5827400353AF55A
:10027E0083E0FE741A253BF5827400353AF583E06F
:10028E00FDED24FEFFEE34FFAB07FAE4F9F8AF28DC
:10029E00FCFDFE12063BA804A905AA06AB07E4FC6A
:1002AE00FDEB252EF525EA352DF524ED39F523EC5C
:1002BE0038F522741D253BF5827400353AF583E03E
:1002CE00FFE4FE780812077CA804A905AA06AB076E
:1002DE00741C253BF5827400353AF583E0FFEB4F35
:1002EE00FFEAFEE9FDE8FCC004C005C006C00774C5
:1002FE001E253BF5827400353AF583E0FFE4FCFDE4
:10030E00FE781012077CD003D002D001D000EF4B44
:10031E00FFEE4AFEED49FDEC48FCC004C005C006E8
:10032E00C007741F253BF5827400353AF583E0FF54
:10033E00E4FCFDFE781812077CD003D002D001D069
:10034E0000EF4BFFEE4AFEED49FDEC48FCE4FB7A74
:10035E0002F9F81206C6EF24FEF537EE34FFF53635
:10036E00ED34FFF535EC34FFF534053CE53C653DE9
:10037E00600E7420253BF53BE4353AF53A0201D286
:10038E00E53C653D600B0539E53970020538020123
:10039E00A9E53C653D6006E4F53D0200971207AF06
:1003AE00900019E0FE900018E0FDEEFC90001AE0BF
:1003BE007E007810C333CE33CED8F9FFEC4EFCED71
:1003CE004FFD90001BE07E007818C333CE33CED89D
:1003DE00F9FFEC4EFEED4FFFE48F328E31F530F526
:1003EE002F900022E0F533900016E0B40204D20301
:1003FE008002C203E53364086003020097E47F8045
:10040E007EBBFDFCAB32AA31A930A82FD312075800
:10041E0040030200977F407E1F1209BFD201E4F510
:10042E0013F514D28E208EFDC201E47B02FAF9F888
:10043E00AF32AE31AD30AC2F1206C61209BF120765
:10044E00AFE4F513F514F50CF50BF50AF509D20228
:10045E00D28E1207B5EF600302003E20B3030200F6
:10046E008420B40302009720A5036387FE78091247
:10047E00078FAB37AA36A935A834C312075850D206
:03048E00020097D2
:0300030002001ADE
:01001A0032B3
:1008700002001EE493A3F8E493A34003F68001F280
:1008800008DFF48029E493A3F85407240CC8C33389
:10089000C4540F4420C8834004F456800146F6DF58
:1008A000E4800B0102040810204080900006E47EE2
:1008B000019360BCA3FF543F30E509541FFEE4934D
:1008C000A360010ECF54C025E060A840B8E493A314
:1008D000FAE493A3F8E493A3C8C582C8CAC583CA3F
:1008E000F0A3C8C582C8CAC583CADFE9DEE780BEF7
:0100190000E6
:10062900BB010689828A83F0225002F722BBFE01B0
:02063900F322AA
:10063B00E88FF0A4CC8BF0A42CFCE98EF0A42CFC5E
:10064B008AF0EDA42CFCEA8EF0A4CDA8F08BF0A4DC
:10065B002DCC3825F0FDE98FF0A42CCD35F0FCEB3B
:10066B008EF0A4FEA9F0EB8FF0A4CFC5F02ECD3900
:0F067B00FEE43CFCEAA42DCE35F0FDE43CFC226D
:10068A0075F008758200EF2FFFEE33FECD33CDCC27
:10069A0033CCC58233C5829BED9AEC99E5829840AA
:1006AA000CF582EE9BFEED9AFDEC99FC0FD5F0D687
:1006BA00E4CEFBE4CDFAE4CCF9A88222B800C1B9B1
:1006CA000059BA002DEC8BF084CFCECDFCE5F0CBEF
:1006DA00F97818EF2FFFEE33FEED33FDEC33FCEB28
:1006EA0033FB10D703994004EB99FB0FD8E5E4F9E3
:1006FA00FA227818EF2FFFEE33FEED33FDEC33FCD0
:10070A00C933C910D7059BE99A4007EC9BFCE99AC3
:10071A00F90FD8E0E4C9FAE4CCFB2275F010EF2F08
:10072A00FFEE33FEED33FDCC33CCC833C810D70708
:10073A009BEC9AE899400AED9BFDEC9AFCE899F843
:0E074A000FD5F0DAE4CDFBE4CCFAE4C8F922D6
:10075800EB9FF5F0EA9E42F0E99D42F0E89C45F0F7
:01076800226E
:10076900E8600FECC313FCED13FDEE13FEEF13FF6E
:03077900D8F12292
:10077C00E8600FEFC333FFEE33FEED33FDEC33FCDB
:03078C00D8F1227F
:10078F007401FF3395E0FEFDFC080808E6CF2FF655
:10079F0018E6CE3EF618E6CD3DF618E6CC3CF6222E
:00000001FF
